:0200000037C007
:10000200FECFFDCFFCCFFBCFFACFF9CFF8CFF7CFA2
:10001200F6CFF5CFF4CFF3CFF2CFF1CFF0CFEFCFD2
:10002200EECFEDCF0000313339344C6F636B203AA1
:10003200204F464600506173733A20004C6F636B49
:10004200203A204F4E00496E76616C6964205061FF
:100052007373776F7264000080C001000500260090
:1000620004006001280002006A015A000000F894AE
:10007200EE27ECBBF1E0FBBFEBBFE5BF8DE0A2E0FA
:10008200BB27ED938A95E9F780E094E0A0E6ED9333
:100092000197E9F7ECE5F0E085919591009761F021
:1000A200A591B59105901590BF01F00105900D92B3
:1000B2000197E1F7FB01F0CFEFE5EDBFE4E0EEBF22
:1000C200C0E6D1E000C0A09AE0EFE1BBA0E10AD116
:1000D200A89831D1ACE2B0E0F2D0E0E0EA93A1E03E
:1000E200C2D0A7E3B0E0EBD03FD01E2F1F3FE1F319
:1000F200A4EFB1E050D138D0EF3FE9F71A3019F44C
:100102001FD123D12FC01B30F9F4E52DF0E0EB59BC
:10011200FE4FA0E0A08314D1A0E6B1E069D0E030A8
:1001220049F4A89A08D1AEE3B0E0C9D01DD0EA30B4
:10013200E9F707C0A5D0A8E4B0E0C1D0A0EDB7E0D0
:100142002AD1FED002D10EC0E4E05E1650F4A52DF5
:10015200B0E0AB59BE4FE12FE05DEC935394AAE2BD
:1001620099D0C2CFB5CFFFCF20D11FEF9498F2D054
:1001720059F0F5D011F411E007C0F7D011F412E0F4
:1001820003C0F7D009F413E0949A9598E3D059F09C
:10019200E6D011F414E007C0E8D011F415E003C072
:1001A200E8D009F416E0959A9698D4D059F0D7D0B1
:1001B20011F417E007C0D9D011F418E003C0D9D068
:1001C20009F419E0969A9798C5D059F0C8D011F45D
:1001D2001AE007C0CAD011F410E003C0CAD009F473
:1001E2001BE0979AEFEFE2BBE12F09911991089575
:1001F200BA93AA93E991F991A991B9916D917191EB
:10020200671721F46623D1F7EE270895671BE1F300
:10021200E1E008F4E2500895BA93AA93E991F991C2
:10022200A991B991CD0105900D920020E1F7FC0151
:100232000895AA93E8B3EF70AE2FE881E07FEA2B2E
:10024200E8BB9BD0C29A99D0C29897D072C0AA93A9
:10025200A881EFDFE881E295E883A881EADF81E106
:100262008A95F1F766C0AA93E881F0E0E659FE4F5D
:10027200E081A981AE0FEBDF498078802296089554
:10028200A2E07FD0ACE0E3DFA1E07BD0E0E07E2E15
:100292004E2E0895AA93A881AA3011F0461448F070
:1002A200E0E0EA937394A72DDEDFA881AA3009F477
:1002B20040C04394C09AA881CADFC0983AC0BA939A
:1002C200AA931A93E981FA813196E983FA833197E5
:1002D200E4911E2FE03019F0A12FDCDFF3CF18815B
:1002E20023960895AA93E7B3E06FE7BBBA9AB89A48
:1002F200B99AC298C098C1986880E881E058E093A2
:100302006C01E881E054E0936D01A4E1B0E043D0D8
:100312003CD03BD03AD0A0E28CDF81E28A95F1F763
:10032200A8E295DFA4E093DFA5E891DFA6E08FDFE6
:10033200A7DF21960895A4DFE3E0EA93A0E093CF3C
:10034200E5E6F1E0FA93EA930895A6E3B0E064DF0C
:1003520055240895E0B3E7700E2F07300895E02F7B
:10036200F0E0E630A0E0FA070895E530A0E0FA07F1
:100372000895E330A0E0FA07089582E08A95F1F744
:10038200089565DFA3E0B0E006C0A0E352DF81E29A
:100392008A95F1F70895109639F08AEF90E0019767
:1003A200F1F7A8951197C9F708951A930A9308953A
:00000001FF
