:040000001BC0FECF54
:10000400FDCFFCCFFBCFFACFF9CFF8CFF7CFF6CFA8
:10001400F5CFF4CFF3CFF2CFF1CFF0CFEFCFEECFD8
:10002400EDCF3F065B4F666D7D077F6F0A00600171
:1000340026000000F894EE27ECBBF1E0FBBFEBBF19
:10004400E5BF8DE0A2E0BB27ED938A95E9F780E058
:1000540094E0A0E6ED930197E9F7E0E3F0E0859101
:100064009591009761F0A591B59105901590BF0108
:10007400F00105900D920197E1F7FB01F0CFEFE558
:10008400EDBFE4E0EEBFC0E6D1E000C0EFE7E7BBC0
:10009400E0E0E8BBE0EFE1BB0CD01E2F1F3F29F0EE
:1000A400F0E0E05AFE4FE08101C0E0E0E8BBF4CFAD
:1000B400FFCF4BD01FEF949835D059F038D011F4BE
:1000C40011E007C03AD011F412E003C03AD009F4A9
:1000D40013E0949A959826D059F029D011F414E09D
:1000E40007C02BD011F415E003C02BD009F416E09F
:1000F400959A969817D059F01AD011F417E007C0C2
:100104001CD011F418E003C01CD009F419E0969A2D
:100114009798819B10E0979AEFEFE2BBE12F09914A
:1001240019910895E0B3E7700E2F07300895E02F7A
:10013400F0E0E630A0E0FA070895E530A0E0FA0721
:100144000895E330A0E0FA0708951A930A930895F6
:00000001FF
