:100000000C943E000C9400000C9400000C94000032
:100010000C9400000C9400000C9400000C94000060
:100020000C9400000C946B000C9400000C940000E5
:100030000C9400000C9400000C9400000C94000040
:100040000C9400000C9400000C9400000C94000030
:100050000C940000010000000000010001000000FD
:10006000010000000000010001000000000001008C
:10007000000001001F00600154000000F894EE270A
:10008000ECBBF1E0FBBFEBBFE5BF8DE0A2E0BB271F
:10009000ED938A95E9F780E094E0A0E6ED9301976F
:1000A000E9F7E4E7F0E085919591009761F0A5917B
:1000B000B59105901590BF01F00105900D92019743
:1000C000E1F7FB01F0CFEFE5EDBFE4E0EEBFC0E606
:1000D000D1E00C94BE000A92EA93FA93EFB7EA9348
:1000E000ECE0E2BFF4010E940901E05AFE4FE0811A
:1000F000E03011F4D89801C0D89AF4010E940901A7
:10010000EE59FE4FE081E03011F4D99801C0D99A40
:10011000F4010E940901EC59FE4FE081E03011F436
:10012000DA9801C0DA9AF4010E940901EA59FE4FF7
:10013000E081E03011F4DB9801C0DB9A0024061462
:10014000070464F4E3E0F0E08E169F0624F4F40163
:1001500031964F0102C0882499240AC00024081453
:1001600009041CF4F401319702C0E3E0F0E04F0110
:10017000E991EFBFF991E99109901895442455242C
:10018000E1E0F0E04F013F01E0E0E4BBE3BBEFEF73
:10019000EABBE0E0EBBBE5E0E3BFECE0E2BFE0E0C0
:1001A000ECBFEFBDEEBDE2BDE5BDE4BDE3BDE1E00A
:1001B000E9BFE0E0E5BFE4BFEAB9E0E8E8B9E0E0C4
:1001C000E0BFE6B9EDB9E6BF78949A9920C0002463
:1001D0000614070474F4EFEFFFEF3F010024081446
:1001E00009041CF4F401319702C0E3E0F0E04F0190
:1001F0000EC0E1E0F0E03F01E3E0F0E08E169F0684
:1002000024F4F40131964F0102C088249924DDCFF3
:10021000FFCFEE0FFF1FEE0FFF1FEE0FFF1F089522
:00000001FF
