:0E0000000C9435000C9400000C9400000C943D
:10000E0000000C9400000C9400000C9400000C9462
:10001E0000000C9400000C9400000C9400000C9452
:10002E0000000C9400000C9400000C9400000C9442
:10003E0000000C9400000C9400000C9400000C9432
:10004E0000000C940000030001002D4E414E0049AB
:10005E004E4600000100600156000000F894EE27A5
:10006E00ECBBF1E0FBBFEBBFE5BF8DE0A2E0BB2731
:10007E00ED938A95E9F780E094E0A0E6ED93019781
:10008E00E9F7E2E6F0E085919591009761F0A59190
:10009E00B59105901590BF01F00105900D92019755
:1000AE00E1F7FB01F0CFEFE5EDBFE4E0EEBFC0E618
:1000BE00D1E00C941D01BA93AA93E881F981A1E0D5
:1000CE00B0E00E949501E03011F4C09801C0C09AD2
:1000DE00A881B981129771F0A881B981139751F057
:1000EE00A881B981169731F0A881B981179711F0BF
:1000FE00E0E001C0E1E0E03011F4C19801C0C19A26
:10010E00A881B981149771F0A881B981159751F022
:10011E00A881B981169731F0A881B981179711F08E
:10012E00E0E001C0E1E0E03011F4C29801C0C29AF3
:10013E00A881B981189731F0A881B981199711F06A
:10014E00E0E001C0E1E0E03011F4C39801C0C39AD1
:10015E00D4C0BA93AA93A881B981119711F4AD981E
:10016E000BC0A881B981129711F4AE9805C0A88171
:10017E00B981139709F4AF98C0C0BA93AA93A88116
:10018E00B981119711F4AD9A0BC0A881B98112975C
:10019E0011F4AE9A05C0A881B981139709F4AF9AEC
:1001AE00ACC0A0E0CA99A1E0E3E0EA9F602DA0E018
:1001BE00C999A1E00E948601E0E0C899E1E0EA0F4A
:1001CE0033C0A0E09A99A1E0E3E0EA9F602DA0E0A1
:1001DE009999A1E00E948601E0E09899E1E0EA0F8A
:1001EE0023C0A0E08299A1E0E3E0EA9F602DA0E0A9
:1001FE008199A1E00E948601E0E08099E1E0EA0F9A
:10020E0013C0CE9908C0CF9B03C0EFEFFFEF02C023
:10021E00E0E0F0E002C0E1E0F0E00895A0E0B79980
:10022E00A1E0E1E00E949001F0E008952297DE0146
:10023E005CD031D02697C5DFEC83FD83D2DFEA8315
:10024E00FB83AFDFE883F983A881B98134DFEC81CA
:10025E00FD81309759F0A881B981EA17FB0731F07B
:10026E00DDDF309719F4AC81BD8173DFEA81FB814C
:10027E00309741F0A881B981EA17FB0719F0AA81DE
:10028E00BB8167DFBEDF309719F0A881B98175DFBA
:10029E002696D0CFFFCFE0E0EABBEBBBEFE0E7BBAB
:1002AE00E0E0E8BBE0EEE4BBE5BBE0E0E1BBE2BBD7
:1002BE00E3BFE2BFECBFEFBDEEBDEDBDECBDE7BDF4
:1002CE00E6BDEBBDEABDE9BDE8BDE2BDE5BDE4BD01
:1002DE00E3BDE9BFE5BFE4BFEAB9E0E8E8B9E0E0B5
:1002EE00E0BFE6B9EDB9E6BF0895BA93AA93A88127
:1002FE00B981E0E0F0E0ED93FC9322960895E2E000
:10030E00EA9FF001A62FAE0F0895F195E195F0400A
:10031E000895EA17E1E009F0EE270895E894F7FF53
:10032E0002C0F3DF6894EA23FB230EF4EEDF089598
:00000001FF