:040000000C943E001E
:100004000C9400000C9400000C9400000C9400006C
:100014000C9400000C9400000C9400000C9400005C
:100024000C946B000C9400000C9400000C940000E1
:100034000C9400000C9400000C9400000C9400003C
:100044000C9400000C9400000C9400000C9400002C
:100054000100000000000100010000000100000098
:100064000000010001000000000001000000010088
:100074001F00640154000000F894EE27ECBBF1E08B
:10008400FBBFEBBFE5BF8DE0A2E0BB27ED938A95F4
:10009400E9F780E094E0A0E6ED930197E9F7E4E75F
:1000A400F0E085919591009761F0A591B591059047
:1000B4001590BF01F00105900D920197E1F7FB0146
:1000C400F0CFEFE5EDBFE4E0EEBFC0E6D1E00C9485
:1000D400D900AA93BA93EA93FA93EFB7EA93ECE0C0
:1000E400E2BFE1E0F0E0EC15FD0509F059C046146B
:1000F40057040CF452C09ED0EC59FE4FE081E0301E
:1001040011F4D89801C0D89A95D0EA59FE4FE081ED
:10011400E03011F4D99801C0D99A8CD0E859FE4F37
:10012400E081E03011F4DA9801C0DA9A83D0E6591C
:10013400FE4FE081E03011F4DB9801C0DB9AA0911E
:100144006201B0916301139744F4A2E6B1E0ED912A
:10015400FD913196FE93EE9305C0E0E0E0936201D9
:10016400E0936301A0916101AA235AF4A614B70491
:1001740024F4F30131973F0103C0E1E0F0E061D0E2
:100184000AC06814790424F4F30131963F0103C0D2
:100194005DD0CC24DD2444245524F20131962F0172
:1001A400E991EFBFF991E991B991A9911895E0E02E
:1001B400E0936201E0936301E1E0F0E06F0146D077
:1001C400E4E6F0E04F01ECE9FFEF5F013401442481
:1001D4005524E0E0E4BBE3BBEFEFEABBE0E0EBBBBC
:1001E400E2E0E3BFECE0E2BFE0E0ECBFEFBDEEBD78
:1001F400E2BDE5BDE4BDE3BDE1E0E9BFE0E0E5BFAC
:10020400E4BFEAB9E0E8E8B9E0E0E0BFE6B9EDB997
:10021400E6BF78949A9904C000240C140D0409F0E4
:1002240007C034014424552411D0E1E0F0E06F010B
:10023400F1CFFFCFE0916201F09163010E942B01A5
:100244000895E0936001F09361010895EFEFFFEFEB
:10025400F8CFEE0FFF1FEE0FFF1FEE0FFF1F0895E5
:00000001FF
