:0C0000000C943E000C9400000C940000D6
:10000C000C9400000C9400000C9400000C94000064
:10001C000C9400000C9400000C946B000C940000E9
:10002C000C9400000C9400000C9400000C94000044
:10003C000C9400000C9400000C9400000C94000034
:10004C000C9400000C940000010000000000010062
:10005C000100000001000000000001000100000090
:10006C0000000100000001001F00600154000000AE
:10007C00F894EE27ECBBF1E0FBBFEBBFE5BF8DE0E6
:10008C00A2E0BB27ED938A95E9F780E094E0A0E627
:10009C00ED930197E9F7E4E7F0E0859195910097EE
:1000AC0061F0A591B59105901590BF01F0010590F7
:1000BC000D920197E1F7FB01F0CFEFE5EDBFE4E026
:1000CC00EEBFC0E6D1E00C94D2000A92EA93FA9308
:1000DC00EFB7EA93ECE0E2BFE1E0F0E0E415F50500
:1000EC0009F054C0062C072861F5F4010E940701A1
:1000FC00E05AFE4FE081E03011F4D89801C0D89A54
:10010C00F4010E940701EE59FE4FE081E03011F43A
:10011C00D99801C0D99AF4010E940701EC59FE4FFD
:10012C00E081E03011F4DA9801C0DA9AF4010E940F
:10013C000701EA59FE4FE081E03011F4DB9801C071
:10014C00DB9AE5E0F0E0E615F7052CF4EAE0F0E0E8
:10015C00E615F7050CF402C0E0E0EBBBEAE0F0E0DA
:10016C00E615F70581F466247724E3E0F0E08E16BB
:10017C009F0624F4F40131964F0104C0882499247D
:10018C004424552403C0F30131963F01E991EFBF9C
:10019C00F991E9910990189566247724882499247B
:1001AC0044245524E0E0E4BBE3BBEFEFEABBE0E022
:1001BC00EBBBE4E0E3BFECE0E2BFE0E0ECBFEFBDA3
:1001CC00EEBDE2BDE5BDE4BDE3BDE1E0E9BFE0E0CD
:1001DC00E5BFE4BFEAB9E0E8E8B9E0E0E0BFE6B9C2
:1001EC00EDB9E6BF789400240414050411F49A9B2D
:1001FC0001C005C0E1E0F0E02F0166247724F3CFC5
:10020C00FFCFEE0FFF1FEE0FFF1FEE0FFF1F089526
:00000001FF
