:0C0000000C943D000C9400000C940000D7
:10000C000C9400000C9400000C9400000C94000064
:10001C000C9400000C9400000C9400000C94000054
:10002C000C9400000C9400000C9400000C94000044
:10003C000C9400000C9400000C9400000C94000034
:10004C000C9400000C9400002566000080C02D4E1E
:10005C00414E000001002D4E414E00494E4600001D
:10006C0002006F0258000100730260000000F89457
:10007C00EE27ECBBF1E0F5BFE5BF8DE0A2E0BB27BE
:10008C00ED938A95E9F780E098E0A0E6ED9301976F
:10009C00E9F7ECE6F0E085919591009761F0A59178
:1000AC00B59105901590BF01F00105900D92019747
:1000BC00E1F7FB01F0CFEFE5EDBFE8E0EEBFC0E606
:1000CC00D2E00C94D5000E94DF050E9409050E9425
:1000DC0045070C941C05BA93AA93E881E150E7B943
:1000EC008BE18A95F1F7E7E8E6B9369A349BFECFB7
:1000FC00E4B1F5B19BC0BA93AA932497EC81FD812E
:10010C00E130A0E0FA0721F4A1E00E94E40537C039
:10011C00E230A0E0FA0721F4A2E00E94E4052FC02F
:10012C00E330A0E0FA0721F4A3E00E94E40527C025
:10013C00E430A0E0FA0721F4A4E00E94E4051FC01B
:10014C00E530A0E0FA0721F4A5E00E94E40517C011
:10015C00E630A0E0FA0721F4A6E00E94E4050FC007
:10016C00E730A0E0FA0721F4A7E00E94E40507C0FD
:10017C00E830A0E0FA0719F4A8E00E94E4052696FE
:10018C000895BA93AA93A881B981B5DF0E94FF059F
:10019C00A3E3B3E988E893E40E94B60747C0A0E163
:1001AC0079D0E0E0EA93A0E036D0E0E6F2E0FA9312
:1001BC00EA93E4E5F0E0FA93EA93A1E0B0E0E1DF42
:1001CC000E943D0984E00E94A4042896A0E6B2E0B7
:1001DC0050D0E7CFFFCFAA93E2B3EF70AE2FE881F8
:1001EC00E07FEA2BE2BB8DE08A95F1F7929A8DE0E5
:1001FC008A95F1F792988DE08A95F1F777C0AA93DA
:10020C00A881E9DFE881E295E883A881E4DF85E84D
:10021C008A95F1F76BC0AA93E881F0E0E159FD4FA4
:10022C00E081A981AE0FEBDF5980488022960895BA
:10023C00A2E00E940406ACE0E2DFA1E00E9404060A
:10024C00E0E04E2E5E2E0895AA93A881AA3011F0FC
:10025C00571448F0E0E0EA934394A42DDCDFA88126
:10026C00AA3009F443C05394909AA881C8DF90989F
:10027C003DC0BA93AA931A93A981BA81ED91A9832F
:10028C00BA831E2FE03019F0A12FDEDFF5CF1881D5
:10029C0023960895AA93E1B3E06FE1BB8A9A889AFA
:1002AC00899A9298909891987880E881E058E09398
:1002BC007102E881E054E0937202A4E1B0E00E9484
:1002CC0006070E940A060E940A060E940A06A0E27D
:1002DC0082DF88EC90E00197F1F7A8E290DFA4E0D0
:1002EC008EDFA5E88CDFA6E08ADFA2DF21960895D9
:1002FC00BA93AA931A930A93AA81BB8112960E946D
:10030C002409309729F1AA81BB8114960E942409F3
:10031C008F01309761F00230E0E01E0780F0F801A9
:10032C0031978F01AA81BB811496ED93FC93AA811E
:10033C00BB8112960E9412063197AC81A083AA81D0
:10034C00BB810E942409FF2312F00E94120606C0F2
:10035C00AA81BB81EFEFFFEFED93FC93198108812C
:10036C00259608950E941806E0E8EA83EFE3EB83F4
:10037C000E945A09EE85FF85EF3FAFEFFA0749F46B
:10038C00E885F985FA93EA93AAE5B0E00E941E0588
:10039C00B7C0EF3FAFE7FA0749F4E885F985FA9360
:1003AC00EA93ABE5B0E00E941E05AAC0AB85A7306E
:1003BC0010F0E6E0EB871B85E12F1150E03019F0CF
:1003CC000E941F06F9CFEC85FD856E857F850E9406
:1003DC00540921F430E00E941F062DC03B850E9479
:1003EC002E0609F008F40BC00E941F060E942E0670
:1003FC0028F00E9439060E943E06F8CF0DC00E94DC
:10040C002E0640F40E9439060E944A060E945106AC
:10041C003150F5CF0E941F06EC85FD856E857F85DA
:10042C000E9456060E9451060E942E0620F00E9441
:10043C0039060E943E0610E0EB85E117A8F1AC816D
:10044C00BD818E819F810E945D060E945606DF0150
:10045C00CB010E940905EC83FD836E837F830E9490
:10046C0039060E9454080E9443070E2F0E9464060E
:10047C000E946B06FF27662777270E947C07AC81BA
:10048C00BD818E819F810E9406080E9439060E94C0
:10049C0070060E945106E12F1F5FE03069F60E9442
:1004AC006406EEE2EC93C8CF0E9475063197AA85DC
:1004BC00A08330302CF43195A885B985EDE203C0CA
:1004CC00A885B985EBE2EC930E9475060E9475062F
:1004DC003197BF01A32FEAE00E94DE08E05DDB014B
:1004EC00EC930E9475063197BF01A32FEAE00E949E
:1004FC000809E05DDB01EC93A885B985E0E0EC939D
:10050C000E94610960960895BA93AA93EF97619738
:10051C000E94580910E0FE01E85AFF4F0190F0814B
:10052C00E02DE887F987FE01EA5AFF4F0190F08130
:10053C00E02DEE83FF83AE81BF81E0E0F0E0ED9330
:10054C00FC93DE01A45ABF4F0E9412063197E4912E
:10055C002E2FE03009F4E9C1E12FE03039F42532D7
:10056C0011F411E002C00E947B06DEC1E130C1F43F
:10057C00253219F40E947B06D6C112E0E0E0ED8B27
:10058C0000E02D3211F401E0CFC12B3219F4EBE273
:10059C00ED8BCAC1203219F4E0E2ED8BC5C102C06B
:1005AC00E23039F450E013E0203311F40068BCC1A0
:1005BC0002C0E33091F4203310F02A3308F007C066
:1005CC00AAE05A9F502DE22FE0535E0FADC140E0E0
:1005DC002E3211F414E0A8C10FC0E43099F420338A
:1005EC0010F02A3308F008C00062AAE04A9F402DA0
:1005FC00E22FE0534E0F98C12C3619F4026015E02F
:10060C0093C103C0E53009F08FC1E22FE33659F4F2
:10061C000E9482060E9489060E948206A481AA93E7
:10062C000E94900680C1E53411F0E53609F403C050
:10063C00E63609F048C0FE017696EE87FF870E94E9
:10064C0096060E9428090E949D060E94A206AD856E
:10065C00AA2332F0AD89AB3259F0A03281F017C029
:10066C000E94A4060E9410070E949D06EDE2ED8BED
:10067C0007FF05C0ED89EA930E94900608C0EE853D
:10068C00FF853196EE87FF873197AD89A08305FFF3
:10069C0046E0263651F40E94A4060E943D094A9376
:1006AC00AB89BC890E94440509C00E94A4060E9423
:1006BC003D094A932A93AC89BD8954DEFE01769696
:1006CC000E94A9061EC0E33739F40E94A2060E94BC
:1006DC00B1060E94A9060EC0E037C1F40E94A20622
:1006EC000E94B106EE87FF87AE85BF850E94370555
:1006FC001E2F08600F77403011F0411708F001C031
:10070C00142F40E0E0E0EC8B30E06DC0E43611F0EB
:10071C00E93611F4046002C0E537A1F4EAE0EC8B91
:10072C0001FF08C0E0E0FAEC6AE97BE30E94B60640
:10073C001AE022C0E0E1F7E260E070E00E94B60649
:10074C0015E01AC0E83511F4086003C0E83709F069
:10075C00EAC0E0E1EC8B01FF08C0E0E0F0E060E013
:10076C0070E10E94B60618E007C0E0E0F0E160E03E
:10077C0070E00E94B60614E0403011F00F7701C013
:10078C0041E001FF08C00E94A2060E949606149642
:10079C000E9428090FC002FF07C00E94A2060E94F7
:1007AC00B1060E94CB0806C00E94A2060E94B106A8
:1007BC0066277727EA87FB876C877D8702FF12C045
:1007CC00AD85AA2342F40E94A4060E94BD080E9493
:1007DC009D06EDE2ED8BED89E03019F01F5F4F5F68
:1007EC0001C00B7F342F00FD14C0151710F4351702
:1007FC0008F00FC007FF08C002FF04C00B7F2D8953
:10080C00115001C020E301C020E20E947B06515030
:10081C00ECCF141790F4006102FF06C00E94BB06D7
:10082C0009F0515011504150E0E3EA930E949006B8
:10083C00503009F051504150ECCF312FEC89E03061
:10084C00B9F43030A1F003FF06C0EE85FF85259189
:10085C00EE87FF8705C0AE85BF852D91AE87BF871C
:10086C000E947B06503009F051503150EACF51C0F4
:10087C000E94CD060E94E3082E2F2A3030F003FF91
:10088C0002C0295C01C0295A01C0205D04FD21C0B1
:10089C00213360F4A889B9898A899B89A130E0E069
:1008AC00BE07E0E08E07E0E09E0709F40BC043179B
:1008BC0040F4531710F000FF01C010C020E207FFF6
:1008CC0008C020E3006102FF04C00E94BB0609F0CF
:1008DC0051500E947B06503009F0515031500E940B
:1008EC00CD060E9414090E949D06EC89A889B9893D
:1008FC008A899B89FF27662777270E94E3080E9435
:10090C00B606E889F9896A897B890E94540909F03D
:10091C00AFCF00FF08C0503031F05150E0E2EA9305
:10092C000E949006F8CF10E00CCEAE81BF810E94E1
:10093C0024090E945F09EF966F960895FF92F82E96
:10094C0026970E945A090E94D606309719F4EFEFA9
:10095C00FFEF23C0DE0116960E94B9088D010E949C
:10096C00D606EE83FF83E0E0E887E987DE011A967E
:10097C000E94B9080E942409FA93EA931A930A93E5
:10098C00EEE7F1E0FA93EA93DE011A96BDDD9F01E2
:10099C00AE81BF81E0E0EC93F9010E9461092A96D7
:1009AC00FF9008950E9442097B816A81F981E88158
:1009BC0077FB770F67FD7160972F9E5781F078F06A
:1009CC00983190F4AA27BB27882708948795B79568
:1009DC00A7959A95D1F7EA23FB23682305C0E894E1
:1009EC007727EE27FF2766276F77769508F46068E0
:1009FC0077F9A991B99189919991EA17FB07680741
:100A0C00790797FB08950E94DF050E94D8040E9485
:100A1C00380919F40E942E0909C0E6F70E942E0924
:100A2C00A0E0B0E080E89FE30E94AF072496089511
:100A3C00BA93AA93E991F991A991B991CD01059035
:100A4C000D920020E1F7FC010895BA93AA93A991A5
:100A5C00B991EE27FF276D91662311F03196FBCFEC
:100A6C000895BA93AA93AA27BB27E991F991059007
:100A7C00002011F01196FBCFFD010895D3D0E0E0DA
:100A8C00EA83EFE3EB831A930A93EB85FC85EF3F44
:100A9C00AFEFFA0731F48BD1A2E6B0E00E941E054D
:100AAC0084C0EF3FAFE7FA0731F481D1A3E6B0E0A1
:100ABC000E941E057AC0AC85AA2352F4E985FA85FA
:100ACC006B857C850E94100777D17BD1EDE2EC938E
:100ADC00A885A73010F0E6E0E8871885E12F1150C3
:100AEC00E03021F075D1E3D078D1F8CF7BD10E94E2
:100AFC00B60762D110E0E0E0F0E060E87FE36DD192
:100B0C0071D10E94990868F063D1BED066D11F5F85
:100B1C00173230F04CD1A7E6B0E00E941E0545C05C
:100B2C00EFCF103021F44DD1E0E3EC931DC0E12F59
:100B3C001150E030C9F04CD1BAD0B2D0DF01CB01AA
:100B4C000E9409054AD14ED10E9454080E944307C5
:100B5C000E2F37D1BAD0F0E03BD14BD00E94060813
:100B6C004AD1B8D029D1E3CFE885E030D1F029D1F2
:100B7C00EEE2EC93E885E150E887EF5F91F03BD132
:100B8C0083D01AD1E985FA856B857C850E94430751
:100B9C000E2F17D19AD0F0E02ED12BD09BD00CD1A8
:100BAC00E9CFAE81BF81E0E0EC93198108812D96ED
:100BBC0008950E9442090E9433090895B0E00E94F2
:100BCC0071000E94CB080E947C07A0E0B0E08AEF85
:100BDC0093E40E940608DF01CB01E0E0F0EC6FE744
:100BEC0074E40E9454080E9438090E9433090C9442
:100BFC0069000E94CB080E947C0708950E940501A1
:100C0C00A3E0B0E00C940607A0E30E94F10088EC8E
:100C1C0090E00197F1F70895ED91FD913196FE93D7
:100C2C00EE930895BA93AA932497E0E0E883E983BE
:100C3C000895AC81BD818E819F81E0E0F0E060E29F
:100C4C0071E40E940608EC83FD836E837F83089514
:100C5C00EC81FD816E817F81AC85BD858E859F8504
:100C6C000E9499080895AC85BD858E859F85089551
:100C7C00EDECFCEC6CEC7DE30E940608EC87FD8748
:100C8C006E877F873F5F0895E0E0F0E060E271E4FB
:100C9C000E9406080895EC87FD876E877F8708956C
:100CAC00A0E0B0E080E09FE30E94B6070895EDEC71
:100CBC00FCEC6CEC7DE30E9406080895A885B985D0
:100CCC001196A887B98711970895E02FE05DEC93F2
:100CDC00E02F08950E9447090E94AF070895E88508
:100CEC00F9853196E887F98708952A93AF81B885FD
:100CFC00E985FA8509950895FE01E65AFF4F0190A2
:100D0C00F081E02D08953497DE01A65ABF4FED9384
:100D1C00FC930895AF81B885E985FA850995089506
:100D2C00DE01A65ABF4F0D90BC91A02D0895EA8705
:100D3C00FB876C877D870895DFDFE5CFEA85FB8530
:100D4C006C857D850895EE87FF87AE85BF850E94F3
:100D5C002B051E2F0895E4DF14960E942409089594
:100D6C00E88BF98B6A8B7B8B08950B7FED89EA936B
:100D7C00DE01A95ABF4F0D90BC91A02DFE01E75A80
:100D8C00FF4F0190F081E02D099550300895E889CE
:100D9C00F9896A897B89AA85BB858C859D8508958F
:100DAC00DE011C960E94B9080E9424090895EE8168
:100DBC00FF81FA93EA930895E987FA876B877C871A
:100DCC000895AE81BF811196AE83BF8311970895AC
:100DDC00AA81BB818C819D810895EA83FB836C83FE
:100DEC007D830895EA81FB816C817D81A985BA851B
:100DFC008B859C850895A985BA858B859C850895DE
:100E0C00109639F080ED97E00197F1F7A8951197BE
:100E1C00C9F7089530976040704009F070580895F4
:100E2C00552342F4503811F4E0FF04C03196691F89
:100E3C00791F6BF050E8572711F45F93CFC05F3FD9
:100E4C0031F0660F000C57956795752F08955F93D9
:100E5C0000200AF0CFC0C8C050E8192E1522880F08
:100E6C00991F9527550F879550E8072E0522660F79
:100E7C00771F7527550F67950895689401C0E894FE
:100E8C005F93F2DF703818F07F3F08F4A7C056E18B
:100E9C00571BAAF4519558300EF4593030F0EFEF3F
:100EAC00FFEF6FEF7FE777F91AC077275523B9F07B
:100EBC00EE0FFF1F661F771F5A95D1F710C07727CB
:100ECC00583028F0EF2FF62F672F5850F9CF5523B5
:100EDC0031F076956795F795E7955A95D1F70020FF
:100EEC000AF445D15F910895689401C0E894309755
:100EFC0060407040B1F0002426F0772312F4009487
:100F0C0036D1172E7EE1112032F07A95EE0FFF1FAD
:100F1C00661F111CF9CFEF2FF62F612D5F938ADF1F
:100F2C005F9108954F93AF01FD01DA01AB01BC0154
:100F3C00CA01402D012C142E4F910895EA0FFB1F6E
:100F4C00681F0895E095F0956095EF5FFF4F6F4F28
:100F5C0008955F9381DF903871F150E8152604C035
:100F6C005F937ADF903839F1703821F1572F591B84
:100F7C002BF112F4D7DFFACF583118F0AA27BB2780
:100F8C008827583028F0AB2FB82F88275850F9CF26
:100F9C00552329F08695B795A7955A95D9F7502DD5
:100FAC00512572F0CBDF38F46795F795E79573957B
:100FBC0013F420C0B7DF3EDF5F910895D8F7FBCF65
:100FCC00EA1BFB0B680B51F010F40094BBDF66239B
:100FDC0092F3EE0FFF1F661F7A95CBF7EE27FF27D4
:100FEC00662777275F910895EFEFFFEF6FE77FEFAD
:100FFC005F910895EFEFFFEF6FE77FE75F91089543
:10100C005F932ADF703851F3903841F30124089430
:10101C00791F23F41CF300203AF3ECCF0F921F93AB
:10102C002F933F934F93112722279927689FA00155
:10103C008F9F302D410D591F6B9F300D411D591F36
:10104C008E9F27D0BF9F25D06A9F23D0BE9F1DD0D7
:10105C00AF9F1BD0AE9F110D291F391F491F591F60
:10106C00E32FF42F652F522F4F913F912F911F910A
:10107C000F9066232AF0550FEE1FFF1F661F02C04C
:10108C0073954BF2CDDE5F910895100D211D391F24
:10109C0002C0200D311D491F591F08955F93DCDEDE
:1010AC00703821F411200AF49FCFA4CF903809F4A2
:1010BC0095CF01240894970B1BF4D4F30020F3CFA5
:1010CC00792F1F932F933F934F931124112722278E
:1010DC0033274427552790E2AE17BF0786074107F1
:1010EC0030F0AE1BBF0B860B410B089401C08894EB
:1010FC00551F221F331F111CAA1FBB1F881F441F03
:10110C009A9551F7F901612D4F913F912F911F91B4
:10111C00662332F0550FEE1FFF1F661F7A9543F2C0
:10112C007FDE5F91089599239AF0772342F0971709
:10113C0048F029F4AE17BF07860720F031F09894D9
:10114C008894089598940894089518948894089510
:10115C007723C2F7971798F3A9F7EA17FB076807E5
:10116C0088F399F3ECCF0024AF0DB01D0895F095E2
:10117C0060957095E195FF4F6F4F7F4F0895FE2F4F
:10118C00FF0FFF0B6F2F7F2F08956F2F660F660BCE
:10119C00762F0895002498E0AA0F001C0E1A10F464
:1011AC000E0E01C0A1609A95B9F7EA2FA02D0895F3
:1011BC0039D0F0DF0EF4E19508953F934F935F9390
:1011CC00002411244427552730E2AA0FBB1F881F87
:1011DC00991F001C111C441F551F0E1A1F0A460B89
:1011EC00570B28F40E0E1F1E461F571F01C0A1607F
:1011FC003A9559F7FD01BC01D001CA015F914F919D
:10120C003F910895E894A7FF02C0A1956894E7FD6B
:10121C00E195C0DFEA2F0EF4E1950895CEDFFD01D4
:10122C00BC010895E894E7FF02C0E1956894A7FF1C
:10123C0004C0A19500F8039400FA0895ED91FC9177
:10124C0011970895ED91FD916D917C9113970895EF
:10125C00E881F9816A817B810895A881B9818A81AD
:10126C009B810895E883F9836A837B8308957A933D
:10127C006A93FA93EA9308959A938A93BA93AA93EA
:10128C000895182E862F612D192E972F712D1B2E38
:10129C00BF2FF12D1A2EAE2FE12D089530976040FF
:1012AC00704008955A934A933A932A931A930A9347
:1012BC0008955D814C813B812A81198108810895B3
:00000001FF
