:0E00000030C0FECFFDCFFCCFFBCFFACFF9CF43
:10000E00F8CFF7CFF6CFF5CFF4CFF3CFF2CFF1CFC6
:10001E00F0CFEFCFEECFEDCF0000030206040C08B9
:10002E000901416E676C65203A20000001002D4EDB
:10003E00414E00494E46000080C0010005002600DA
:10004E00080060012800010068013A0002006C01FE
:10005E0046000000F894EE27ECBBF1E0FBBFEBBFCF
:10006E00E5BF8DE0A2E0BB27ED938A95E9F780E02E
:10007E0094E0A0E6ED930197E9F7E8E4F0E08591CE
:10008E009591009761F0A591B59105901590BF01DE
:10009E00F00105900D920197E1F7FB01F0CFEFE52E
:1000AE00EDBFE4E0EEBFC0E6D1E000C02497E0E093
:1000BE00E5BBEFE0E4BBE0ECE2BBE0E0E1BBA0E1DE
:1000CE00DBD095D0A0E3B0E0C4D0A52DEDE2EA9F41
:1000DE001A920A92DE01129635D0E7E0EA93A1E079
:1000EE0079D0DE01A7D0869B02C0879901C001C0DE
:1000FE00FACF86990CC05394E52DF0E0A7E0B0E05E
:10010E00FDD05E2EA2E3E0D0869BFECFDACF87999C
:10011E0017C0A2E3D9D0879BFECF00E010E0E52DFB
:10012E00D801F0E0AE17BF075CF4A0E6B1E0A00F77
:10013E00B11FEC91E5BBA4E6C7D00F5F1F4FEFCF09
:10014E00C0CFFFCFBA93AA93A991B991E991F99132
:10015E0030962AF4E095F09531966DE26D93E89421
:10016E0080E197E20DD088EE93E00AD084E69927DD
:10017E0007D08AE005D06E2F10D066276C930895B5
:10018E006627E817F90720F06395E81BF90BC9F706
:10019E00662311F416F008956894605D6D930895CA
:1001AE00AA93E8B3EF70AE2FE881E07FEA2BE8BBAD
:1001BE008DD0C29A8BD0C29889D084C0AA93A881C0
:1001CE00EFDFE881E295E883A881EADF81E18A9595
:1001DE00F1F778C0AA93E881F0E0E459FE4FE08190
:1001EE00A981AE0FEBDF4980788022960895A2E0B8
:1001FE00E5DFA3E069D0ACE0E1DFA1E0DFDFA3E063
:10020E0063D0E0E07E2E4E2E0895AA93A881AA30E8
:10021E0011F0461448F0E0E0EA937394A72DDADF6C
:10022E00A881AA3009F44EC04394C09AA881C6DFB3
:10023E00C09848C0BA93AA931A93A981BA81ED9136
:10024E00A983BA831E2FE03019F0A12FDEDFF5CF80
:10025E0010C0BA93AA931A93E981FA813196E98371
:10026E00FA833197E4911E2FE03019F0A12FCDDFE4
:10027E00F3CF188123960895AA93E7B3E06FE7BBF7
:10028E00BA9AB89AB99AC298C098C1986880E8810B
:10029E00E058E0936E01E881E054E0936F01A4E131
:1002AE0013D018D017D016D0A0E27ADF81E28A954B
:1002BE00F1F7A8E283DFA4E081DFA5E87FDFA6E007
:1002CE007DDF95DF21960895B0E00AC082E08A9521
:1002DE00F1F70895A0E364DF81E28A95F1F70895BE
:1002EE00109639F08AEF90E00197F1F7A8951197E3
:1002FE00C9F70895F195E195F0400895E894F7FF58
:10030E0002C0F8DF6894EA23FB230EF4F3DF0895AE
:00000001FF
